{
  "contractName": "Access_Validator_Contract",
  "abi": [
    {
      "inputs": [
        {
          "internalType": "address",
          "name": "_policyStorageContractAddress",
          "type": "address"
        },
        {
          "internalType": "address",
          "name": "_attributeStorageContractAddress",
          "type": "address"
        },
        {
          "internalType": "address",
          "name": "_applicationLogicContractAddress",
          "type": "address"
        }
      ],
      "stateMutability": "nonpayable",
      "type": "constructor"
    },
    {
      "inputs": [],
      "name": "applicationLogic",
      "outputs": [
        {
          "internalType": "contract IApplicationLogic",
          "name": "",
          "type": "address"
        }
      ],
      "stateMutability": "view",
      "type": "function",
      "constant": true
    },
    {
      "inputs": [],
      "name": "attributeStorage",
      "outputs": [
        {
          "internalType": "contract IAttributeStorage",
          "name": "",
          "type": "address"
        }
      ],
      "stateMutability": "view",
      "type": "function",
      "constant": true
    },
    {
      "inputs": [
        {
          "internalType": "uint256",
          "name": "",
          "type": "uint256"
        }
      ],
      "name": "functionsOfApplicationLogic",
      "outputs": [
        {
          "internalType": "bytes4",
          "name": "",
          "type": "bytes4"
        }
      ],
      "stateMutability": "view",
      "type": "function",
      "constant": true
    },
    {
      "inputs": [],
      "name": "owner",
      "outputs": [
        {
          "internalType": "address",
          "name": "",
          "type": "address"
        }
      ],
      "stateMutability": "view",
      "type": "function",
      "constant": true
    },
    {
      "inputs": [],
      "name": "policyStorage",
      "outputs": [
        {
          "internalType": "contract IPolicyStorage",
          "name": "",
          "type": "address"
        }
      ],
      "stateMutability": "view",
      "type": "function",
      "constant": true
    },
    {
      "inputs": [
        {
          "internalType": "uint256",
          "name": "AttrID",
          "type": "uint256"
        }
      ],
      "name": "getAttributesFromEnvironment",
      "outputs": [
        {
          "internalType": "uint256",
          "name": "",
          "type": "uint256"
        }
      ],
      "stateMutability": "view",
      "type": "function",
      "constant": true
    },
    {
      "inputs": [
        {
          "internalType": "uint256[]",
          "name": "x",
          "type": "uint256[]"
        },
        {
          "internalType": "uint256[]",
          "name": "y",
          "type": "uint256[]"
        }
      ],
      "name": "checkSubset",
      "outputs": [
        {
          "internalType": "bool",
          "name": "",
          "type": "bool"
        }
      ],
      "stateMutability": "pure",
      "type": "function",
      "constant": true
    },
    {
      "inputs": [
        {
          "internalType": "string",
          "name": "_function_name",
          "type": "string"
        },
        {
          "internalType": "string",
          "name": "candidate",
          "type": "string"
        }
      ],
      "name": "evaluate",
      "outputs": [
        {
          "internalType": "bool",
          "name": "",
          "type": "bool"
        }
      ],
      "stateMutability": "nonpayable",
      "type": "function"
    }
  ],
  "bytecode": "0x60806040526040518060200160405280601860ff1681525060059060016200002992919062000169565b503480156200003757600080fd5b50604051620011b8380380620011b883398181016040528101906200005d9190620001f6565b336000806101000a81548173ffffffffffffffffffffffffffffffffffffffff021916908373ffffffffffffffffffffffffffffffffffffffff16021790555082600260006101000a81548173ffffffffffffffffffffffffffffffffffffffff021916908373ffffffffffffffffffffffffffffffffffffffff16021790555081600360006101000a81548173ffffffffffffffffffffffffffffffffffffffff021916908373ffffffffffffffffffffffffffffffffffffffff16021790555080600460006101000a81548173ffffffffffffffffffffffffffffffffffffffff021916908373ffffffffffffffffffffffffffffffffffffffff1602179055505050506200029a565b828054828255906000526020600020908101928215620001ad579160200282015b82811115620001ac578251829060ff169055916020019190600101906200018a565b5b509050620001bc9190620001c0565b5090565b5b80821115620001db576000816000905550600101620001c1565b5090565b600081519050620001f08162000280565b92915050565b6000806000606084860312156200020c57600080fd5b60006200021c86828701620001df565b93505060206200022f86828701620001df565b92505060406200024286828701620001df565b9150509250925092565b6000620002598262000260565b9050919050565b600073ffffffffffffffffffffffffffffffffffffffff82169050919050565b6200028b816200024c565b81146200029757600080fd5b50565b610f0e80620002aa6000396000f3fe608060405234801561001057600080fd5b50600436106100885760003560e01c8063877fdeba1161005b578063877fdeba146101295780638da5cb5b14610147578063c4c0945f14610165578063e2905aab1461019557610088565b80631af5c2d31461008d57806324a5acd5146100bd578063599fe9ec146100ed5780636c73d5f71461010b575b600080fd5b6100a760048036038101906100a291906108ab565b6101c5565b6040516100b49190610b39565b60405180910390f35b6100d760048036038101906100d29190610917565b6102b9565b6040516100e49190610b39565b60405180910390f35b6100f56105b0565b6040516101029190610ba5565b60405180910390f35b6101136105d6565b6040516101209190610b6f565b60405180910390f35b6101316105fc565b60405161013e9190610b8a565b60405180910390f35b61014f610622565b60405161015c9190610b1e565b60405180910390f35b61017f600480360381019061017a9190610983565b610646565b60405161018c9190610c02565b60405180910390f35b6101af60048036038101906101aa9190610983565b610675565b6040516101bc9190610b54565b60405180910390f35b60008060005b84518110156102ac576000915060005b84518110156102885784818151811061021d577f4e487b7100000000000000000000000000000000000000000000000000000000600052603260045260246000fd5b602002602001015186838151811061025e577f4e487b7100000000000000000000000000000000000000000000000000000000600052603260045260246000fd5b602002602001015114156102755760019250610288565b808061028090610e09565b9150506101db565b5081610299576000925050506102b3565b80806102a490610e09565b9150506101cb565b5060019150505b92915050565b600080838051906020012090506000600260009054906101000a900473ffffffffffffffffffffffffffffffffffffffff1673ffffffffffffffffffffffffffffffffffffffff16635008a8dd836040518263ffffffff1660e01b81526004016103239190610b54565b60006040518083038186803b15801561033b57600080fd5b505afa15801561034f573d6000803e3d6000fd5b505050506040513d6000823e3d601f19601f82011682018060405250810190610378919061086a565b90506000600360009054906101000a900473ffffffffffffffffffffffffffffffffffffffff1673ffffffffffffffffffffffffffffffffffffffff1663dc3f74f0336040518263ffffffff1660e01b81526004016103d79190610b1e565b60006040518083038186803b1580156103ef57600080fd5b505afa158015610403573d6000803e3d6000fd5b505050506040513d6000823e3d601f19601f8201168201806040525081019061042c919061086a565b9050600061043a83836101c5565b905080156105a1576000600460009054906101000a900473ffffffffffffffffffffffffffffffffffffffff1673ffffffffffffffffffffffffffffffffffffffff16888860405160240161048f9190610bc0565b604051602081830303815290604052906040516104ac9190610b07565b60405180910390207bffffffffffffffffffffffffffffffffffffffffffffffffffffffff19166020820180517bffffffffffffffffffffffffffffffffffffffffffffffffffffffff838183161783525050505060405161050e9190610af0565b6000604051808303816000865af19150503d806000811461054b576040519150601f19603f3d011682016040523d82523d6000602084013e610550565b606091505b5050905080610594576040517f08c379a000000000000000000000000000000000000000000000000000000000815260040161058b90610be2565b60405180910390fd5b80955050505050506105aa565b60009450505050505b92915050565b600260009054906101000a900473ffffffffffffffffffffffffffffffffffffffff1681565b600460009054906101000a900473ffffffffffffffffffffffffffffffffffffffff1681565b600360009054906101000a900473ffffffffffffffffffffffffffffffffffffffff1681565b60008054906101000a900473ffffffffffffffffffffffffffffffffffffffff1681565b6000600182141561065957429050610670565b600282141561066b5760049050610670565b600090505b919050565b6001818154811061068557600080fd5b9060005260206000209060089182820401919006600402915054906101000a900460e01b81565b60006106bf6106ba84610c4e565b610c1d565b905080838252602082019050828560208602820111156106de57600080fd5b60005b8581101561070e57816106f48882610840565b8452602084019350602083019250506001810190506106e1565b5050509392505050565b600061072b61072684610c4e565b610c1d565b9050808382526020820190508285602086028201111561074a57600080fd5b60005b8581101561077a57816107608882610855565b84526020840193506020830192505060018101905061074d565b5050509392505050565b600061079761079284610c7a565b610c1d565b9050828152602081018484840111156107af57600080fd5b6107ba848285610dc7565b509392505050565b600082601f8301126107d357600080fd5b81356107e38482602086016106ac565b91505092915050565b600082601f8301126107fd57600080fd5b815161080d848260208601610718565b91505092915050565b600082601f83011261082757600080fd5b8135610837848260208601610784565b91505092915050565b60008135905061084f81610ec1565b92915050565b60008151905061086481610ec1565b92915050565b60006020828403121561087c57600080fd5b600082015167ffffffffffffffff81111561089657600080fd5b6108a2848285016107ec565b91505092915050565b600080604083850312156108be57600080fd5b600083013567ffffffffffffffff8111156108d857600080fd5b6108e4858286016107c2565b925050602083013567ffffffffffffffff81111561090157600080fd5b61090d858286016107c2565b9150509250929050565b6000806040838503121561092a57600080fd5b600083013567ffffffffffffffff81111561094457600080fd5b61095085828601610816565b925050602083013567ffffffffffffffff81111561096d57600080fd5b61097985828601610816565b9150509250929050565b60006020828403121561099557600080fd5b60006109a384828501610840565b91505092915050565b6109b581610ce7565b82525050565b6109c481610cf9565b82525050565b6109d381610d05565b82525050565b60006109e482610caa565b6109ee8185610cc0565b93506109fe818560208601610dd6565b80840191505092915050565b610a1381610d5b565b82525050565b610a2281610d7f565b82525050565b610a3181610da3565b82525050565b6000610a4282610cb5565b610a4c8185610ccb565b9350610a5c818560208601610dd6565b610a6581610eb0565b840191505092915050565b6000610a7b82610cb5565b610a858185610cdc565b9350610a95818560208601610dd6565b80840191505092915050565b6000610aae601583610ccb565b91507f46756e6374696f6e2063616c6c206661696c65642e00000000000000000000006000830152602082019050919050565b610aea81610d51565b82525050565b6000610afc82846109d9565b915081905092915050565b6000610b138284610a70565b915081905092915050565b6000602082019050610b3360008301846109ac565b92915050565b6000602082019050610b4e60008301846109bb565b92915050565b6000602082019050610b6960008301846109ca565b92915050565b6000602082019050610b846000830184610a0a565b92915050565b6000602082019050610b9f6000830184610a19565b92915050565b6000602082019050610bba6000830184610a28565b92915050565b60006020820190508181036000830152610bda8184610a37565b905092915050565b60006020820190508181036000830152610bfb81610aa1565b9050919050565b6000602082019050610c176000830184610ae1565b92915050565b6000604051905081810181811067ffffffffffffffff82111715610c4457610c43610e81565b5b8060405250919050565b600067ffffffffffffffff821115610c6957610c68610e81565b5b602082029050602081019050919050565b600067ffffffffffffffff821115610c9557610c94610e81565b5b601f19601f8301169050602081019050919050565b600081519050919050565b600081519050919050565b600081905092915050565b600082825260208201905092915050565b600081905092915050565b6000610cf282610d31565b9050919050565b60008115159050919050565b60007fffffffff0000000000000000000000000000000000000000000000000000000082169050919050565b600073ffffffffffffffffffffffffffffffffffffffff82169050919050565b6000819050919050565b6000610d6682610d6d565b9050919050565b6000610d7882610d31565b9050919050565b6000610d8a82610d91565b9050919050565b6000610d9c82610d31565b9050919050565b6000610dae82610db5565b9050919050565b6000610dc082610d31565b9050919050565b82818337600083830152505050565b60005b83811015610df4578082015181840152602081019050610dd9565b83811115610e03576000848401525b50505050565b6000610e1482610d51565b91507fffffffffffffffffffffffffffffffffffffffffffffffffffffffffffffffff821415610e4757610e46610e52565b5b600182019050919050565b7f4e487b7100000000000000000000000000000000000000000000000000000000600052601160045260246000fd5b7f4e487b7100000000000000000000000000000000000000000000000000000000600052604160045260246000fd5b6000601f19601f8301169050919050565b610eca81610d51565b8114610ed557600080fd5b5056fea264697066735822122093eec012c5fd64947e5e5a6c18555e12cbcd58b868c8a82578289dba7bb5054c64736f6c63430008000033",
  "immutableReferences": {},
  "source": "// SPDX-License-Identifier: MIT\r\npragma solidity ^0.8.0;\r\n\r\ninterface IPolicyStorage {\r\n    function getPolicyEntry(bytes4 _funcId) external view returns (uint[] memory);\r\n}\r\n\r\ninterface IAttributeStorage {\r\n    function getAttributesFromAddress(address _user) external view returns(uint[] memory);\r\n}\r\n\r\ninterface IApplicationLogic{\r\n    function voteForCandidate(string memory candidate) external ; \r\n}\r\n\r\ncontract Access_Validator_Contract {\r\n\r\n    address public owner;\r\n\r\n    bytes4[] public functionsOfApplicationLogic;\r\n\r\n    IPolicyStorage public policyStorage; \r\n    IAttributeStorage public attributeStorage;\r\n    IApplicationLogic public applicationLogic;\r\n\r\n    enum RuleEvaluation { DENY, PERMIT, NOTAPPLICABLE, INDETERMINATE }\r\n\r\n    uint[] private environmentCheckNeccesary = [24] ; \r\n\r\n\r\n\r\n\r\n    constructor(address _policyStorageContractAddress, address _attributeStorageContractAddress, address _applicationLogicContractAddress) {\r\n        owner = msg.sender;\r\n        policyStorage = IPolicyStorage(_policyStorageContractAddress);\r\n        attributeStorage = IAttributeStorage(_attributeStorageContractAddress);\r\n        applicationLogic = IApplicationLogic(_applicationLogicContractAddress); \r\n    }\r\n\r\n    function getAttributesFromEnvironment(uint AttrID) public view returns(uint) {\r\n        if (AttrID == 1){\r\n            //return current blocktime \r\n            return block.timestamp; \r\n        }else if (AttrID == 2){\r\n            // Define further Environment Attributes\r\n            return 4;\r\n        }else {\r\n            //AttrID is not defined\r\n            return 0 ;\r\n        }\r\n        \r\n    }\r\n\r\n    function checkSubset(uint[] memory x, uint[] memory y) public pure returns (bool) {\r\n        bool elementFound;\r\n\r\n        // check if each element of x is in y \r\n        for (uint j = 0; j < x.length; j++) {\r\n            elementFound = false; // Reset fr jedes neue Element von x\r\n            for (uint i = 0; i < y.length; i++) {\r\n                if (x[j] == y[i]) {\r\n                    elementFound = true;\r\n                    break;\r\n                }\r\n            }\r\n            // If a Element of X could not be found in y, return false \r\n            if (!elementFound) {\r\n                return false;\r\n            }\r\n        }\r\n\r\n        return true; // Alle Elemente von x sind mindestens einmal in y vorhanden\r\n    }\r\n\r\n    function evaluate(string memory _function_name, string memory candidate) public returns(bool){\r\n\r\n        bytes4 funcID = bytes4(keccak256(bytes(_function_name)));\r\n\r\n        uint[] memory policy =  policyStorage.getPolicyEntry(funcID);\r\n\r\n        uint [] memory usersAttributes = attributeStorage.getAttributesFromAddress(msg.sender);\r\n\r\n        bool permission = checkSubset(policy, usersAttributes);\r\n\r\n        //check if Blocktime is need: \r\n\r\n        //bool timeneeded = checkSubset(environmentCheckNeccesary, policy);\r\n\r\n        if(permission){\r\n            (bool success, ) = address(applicationLogic).call(abi.encodeWithSignature(_function_name, candidate));\r\n            require(success, \"Function call failed.\");\r\n            return success;\r\n        } else {\r\n            // if no permission is granted\r\n            return(false);\r\n            //revert(\"You do not have permission to perform this action.\");\r\n             \r\n        }\r\n        \r\n      \r\n\r\n\r\n\r\n        \r\n\r\n        //return RuleEvaluation.PERMIT;\r\n\r\n    }\r\n\r\n\r\n}\r\n",
  "sourcePath": "C:\\Users\\mike1\\Desktop\\Masterarbeit\\Code\\Smart_Contracts\\contracts\\Access_Validator.sol",
  "compiler": {
    "name": "solc",
    "version": "0.8.0+commit.c7dfd78e.Emscripten.clang"
  },
  "schemaVersion": "3.4.16",
  "updatedAt": "2024-06-02T20:50:10.944Z",
  "networkType": "ethereum",
  "devdoc": {
    "kind": "dev",
    "methods": {},
    "version": 1
  },
  "userdoc": {
    "kind": "user",
    "methods": {},
    "version": 1
  }
}