{
  "contractName": "Application_Logic_Contract",
  "abi": [
    {
      "inputs": [
        {
          "internalType": "string[]",
          "name": "candidateNames",
          "type": "string[]"
        }
      ],
      "stateMutability": "nonpayable",
      "type": "constructor"
    },
    {
      "inputs": [],
      "name": "accessValidatorContract",
      "outputs": [
        {
          "internalType": "address",
          "name": "",
          "type": "address"
        }
      ],
      "stateMutability": "view",
      "type": "function",
      "constant": true
    },
    {
      "inputs": [
        {
          "internalType": "uint256",
          "name": "",
          "type": "uint256"
        }
      ],
      "name": "candidateList",
      "outputs": [
        {
          "internalType": "string",
          "name": "",
          "type": "string"
        }
      ],
      "stateMutability": "view",
      "type": "function",
      "constant": true
    },
    {
      "inputs": [
        {
          "internalType": "string",
          "name": "",
          "type": "string"
        }
      ],
      "name": "votesReceived",
      "outputs": [
        {
          "internalType": "uint256",
          "name": "",
          "type": "uint256"
        }
      ],
      "stateMutability": "view",
      "type": "function",
      "constant": true
    },
    {
      "inputs": [
        {
          "internalType": "address",
          "name": "_addr",
          "type": "address"
        }
      ],
      "name": "setAccessValidatorContract",
      "outputs": [],
      "stateMutability": "nonpayable",
      "type": "function"
    },
    {
      "inputs": [
        {
          "internalType": "string",
          "name": "candidate",
          "type": "string"
        }
      ],
      "name": "voteForCandidate",
      "outputs": [],
      "stateMutability": "nonpayable",
      "type": "function"
    },
    {
      "inputs": [
        {
          "internalType": "string",
          "name": "candidate",
          "type": "string"
        }
      ],
      "name": "totalVotesFor",
      "outputs": [
        {
          "internalType": "uint256",
          "name": "",
          "type": "uint256"
        }
      ],
      "stateMutability": "view",
      "type": "function",
      "constant": true
    }
  ],
  "bytecode": "0x60806040523480156200001157600080fd5b5060405162000ec238038062000ec28339818101604052810190620000379190620002e0565b80600290805190602001906200004f92919062000057565b505062000485565b828054828255906000526020600020908101928215620000ab579160200282015b82811115620000aa57825182908051906020019062000099929190620000be565b509160200191906001019062000078565b5b509050620000ba91906200014f565b5090565b828054620000cc90620003f1565b90600052602060002090601f016020900481019282620000f057600085556200013c565b82601f106200010b57805160ff19168380011785556200013c565b828001600101855582156200013c579182015b828111156200013b5782518255916020019190600101906200011e565b5b5090506200014b919062000177565b5090565b5b8082111562000173576000818162000169919062000196565b5060010162000150565b5090565b5b808211156200019257600081600090555060010162000178565b5090565b508054620001a490620003f1565b6000825580601f10620001b85750620001d9565b601f016020900490600052602060002090810190620001d8919062000177565b5b50565b6000620001f3620001ed8462000359565b62000325565b9050808382526020820190508260005b858110156200023757815185016200021c8882620002b3565b84526020840193506020830192505060018101905062000203565b5050509392505050565b600062000258620002528462000388565b62000325565b9050828152602081018484840111156200027157600080fd5b6200027e848285620003bb565b509392505050565b600082601f8301126200029857600080fd5b8151620002aa848260208601620001dc565b91505092915050565b600082601f830112620002c557600080fd5b8151620002d784826020860162000241565b91505092915050565b600060208284031215620002f357600080fd5b600082015167ffffffffffffffff8111156200030e57600080fd5b6200031c8482850162000286565b91505092915050565b6000604051905081810181811067ffffffffffffffff821117156200034f576200034e62000456565b5b8060405250919050565b600067ffffffffffffffff82111562000377576200037662000456565b5b602082029050602081019050919050565b600067ffffffffffffffff821115620003a657620003a562000456565b5b601f19601f8301169050602081019050919050565b60005b83811015620003db578082015181840152602081019050620003be565b83811115620003eb576000848401525b50505050565b600060028204905060018216806200040a57607f821691505b6020821081141562000421576200042062000427565b5b50919050565b7f4e487b7100000000000000000000000000000000000000000000000000000000600052602260045260246000fd5b7f4e487b7100000000000000000000000000000000000000000000000000000000600052604160045260246000fd5b610a2d80620004956000396000f3fe608060405234801561001057600080fd5b50600436106100625760003560e01c80634a3bf37714610067578063814ef544146100975780638d4b44d9146100b3578063b13c744b146100e3578063e89927ef14610113578063ff24a8841461012f575b600080fd5b610081600480360381019061007c91906104dd565b61014d565b60405161008e9190610719565b60405180910390f35b6100b160048036038101906100ac91906104b4565b6101bd565b005b6100cd60048036038101906100c891906104dd565b610200565b6040516100da9190610719565b60405180910390f35b6100fd60048036038101906100f8919061051e565b61022e565b60405161010a91906106d7565b60405180910390f35b61012d600480360381019061012891906104dd565b6102da565b005b61013761035a565b60405161014491906106bc565b60405180910390f35b60006101588261037e565b610197576040517f08c379a000000000000000000000000000000000000000000000000000000000815260040161018e906106f9565b60405180910390fd5b6001826040516101a791906106a5565b9081526020016040518091039020549050919050565b806000806101000a81548173ffffffffffffffffffffffffffffffffffffffff021916908373ffffffffffffffffffffffffffffffffffffffff16021790555050565b6001818051602081018201805184825260208301602085012081835280955050505050506000915090505481565b6002818154811061023e57600080fd5b906000526020600020016000915090508054610259906108b0565b80601f0160208091040260200160405190810160405280929190818152602001828054610285906108b0565b80156102d25780601f106102a7576101008083540402835291602001916102d2565b820191906000526020600020905b8154815290600101906020018083116102b557829003601f168201915b505050505081565b6102e38161037e565b610322576040517f08c379a0000000000000000000000000000000000000000000000000000000008152600401610319906106f9565b60405180910390fd5b6001808260405161033391906106a5565b9081526020016040518091039020600082825461035091906107dc565b9250508190555050565b60008054906101000a900473ffffffffffffffffffffffffffffffffffffffff1681565b600080600090505b600280549050811015610417578280519060200120600282815481106103d5577f4e487b7100000000000000000000000000000000000000000000000000000000600052603260045260246000fd5b906000526020600020016040516103ec919061068e565b6040518091039020141561040457600191505061041d565b808061040f906108e2565b915050610386565b50600090505b919050565b600061043561043084610765565b610734565b90508281526020810184848401111561044d57600080fd5b61045884828561086e565b509392505050565b60008135905061046f816109c9565b92915050565b600082601f83011261048657600080fd5b8135610496848260208601610422565b91505092915050565b6000813590506104ae816109e0565b92915050565b6000602082840312156104c657600080fd5b60006104d484828501610460565b91505092915050565b6000602082840312156104ef57600080fd5b600082013567ffffffffffffffff81111561050957600080fd5b61051584828501610475565b91505092915050565b60006020828403121561053057600080fd5b600061053e8482850161049f565b91505092915050565b61055081610832565b82525050565b60008154610563816108b0565b61056d81866107b5565b945060018216600081146105885760018114610599576105cc565b60ff198316865281860193506105cc565b6105a285610795565b60005b838110156105c4578154818901526001820191506020810190506105a5565b838801955050505b50505092915050565b60006105e0826107aa565b6105ea81856107c0565b93506105fa81856020860161087d565b610603816109b8565b840191505092915050565b6000610619826107aa565b61062381856107d1565b935061063381856020860161087d565b80840191505092915050565b600061064c6016836107c0565b91507f4e6f7420612076616c69642063616e6469646174652e000000000000000000006000830152602082019050919050565b61068881610864565b82525050565b600061069a8284610556565b915081905092915050565b60006106b1828461060e565b915081905092915050565b60006020820190506106d16000830184610547565b92915050565b600060208201905081810360008301526106f181846105d5565b905092915050565b600060208201905081810360008301526107128161063f565b9050919050565b600060208201905061072e600083018461067f565b92915050565b6000604051905081810181811067ffffffffffffffff8211171561075b5761075a610989565b5b8060405250919050565b600067ffffffffffffffff8211156107805761077f610989565b5b601f19601f8301169050602081019050919050565b60008190508160005260206000209050919050565b600081519050919050565b600081905092915050565b600082825260208201905092915050565b600081905092915050565b60006107e782610864565b91506107f283610864565b9250827fffffffffffffffffffffffffffffffffffffffffffffffffffffffffffffffff038211156108275761082661092b565b5b828201905092915050565b600061083d82610844565b9050919050565b600073ffffffffffffffffffffffffffffffffffffffff82169050919050565b6000819050919050565b82818337600083830152505050565b60005b8381101561089b578082015181840152602081019050610880565b838111156108aa576000848401525b50505050565b600060028204905060018216806108c857607f821691505b602082108114156108dc576108db61095a565b5b50919050565b60006108ed82610864565b91507fffffffffffffffffffffffffffffffffffffffffffffffffffffffffffffffff8214156109205761091f61092b565b5b600182019050919050565b7f4e487b7100000000000000000000000000000000000000000000000000000000600052601160045260246000fd5b7f4e487b7100000000000000000000000000000000000000000000000000000000600052602260045260246000fd5b7f4e487b7100000000000000000000000000000000000000000000000000000000600052604160045260246000fd5b6000601f19601f8301169050919050565b6109d281610832565b81146109dd57600080fd5b50565b6109e981610864565b81146109f457600080fd5b5056fea26469706673582212201e5b495e0c7fec39d575e8bce47c499d0e75072407dd30858bfba5c4a2e13a6d64736f6c63430008000033",
  "immutableReferences": {},
  "source": "// SPDX-License-Identifier: MIT\r\npragma solidity ^0.8.0;\r\n\r\ncontract Application_Logic_Contract {\r\n\r\n    address public accessValidatorContract; \r\n\r\n\r\n    mapping (string => uint256) public votesReceived;\r\n    string[] public candidateList;\r\n\r\n    function setAccessValidatorContract(address _addr) public {\r\n        // Zustzliche Sicherheitsprfungen sollten hier implementiert werden\r\n        accessValidatorContract = _addr;\r\n    }\r\n\r\n    constructor(string[] memory candidateNames) {\r\n        candidateList = candidateNames;\r\n    }\r\n\r\n    function voteForCandidate(string memory candidate) public {\r\n        \r\n        require(validCandidate(candidate), \"Not a valid candidate.\");\r\n        \r\n        votesReceived[candidate] += 1;\r\n        \r\n    }\r\n\r\n     function totalVotesFor(string memory candidate) public view returns (uint256) {\r\n        require(validCandidate(candidate), \"Not a valid candidate.\");\r\n        return votesReceived[candidate];\r\n    }\r\n\r\n    function validCandidate(string memory candidate) internal view returns (bool) {\r\n        for(uint i = 0; i < candidateList.length; i++) {\r\n            if (keccak256(bytes(candidateList[i])) == keccak256(bytes(candidate))) {\r\n                return true;\r\n            }\r\n        }\r\n        return false;\r\n    }\r\n\r\n\r\n}\r\n",
  "sourcePath": "C:\\Users\\mike1\\Desktop\\Masterarbeit\\Code\\Smart_Contracts\\contracts\\Application_Logic.sol",
  "compiler": {
    "name": "solc",
    "version": "0.8.0+commit.c7dfd78e.Emscripten.clang"
  },
  "schemaVersion": "3.4.16",
  "updatedAt": "2024-06-02T20:50:10.930Z",
  "networkType": "ethereum",
  "devdoc": {
    "kind": "dev",
    "methods": {},
    "version": 1
  },
  "userdoc": {
    "kind": "user",
    "methods": {},
    "version": 1
  }
}