{
  "contractName": "Attribute_Storage_Contract",
  "abi": [
    {
      "inputs": [],
      "stateMutability": "nonpayable",
      "type": "constructor"
    },
    {
      "inputs": [
        {
          "internalType": "address",
          "name": "",
          "type": "address"
        },
        {
          "internalType": "uint256",
          "name": "",
          "type": "uint256"
        }
      ],
      "name": "Attribute_Storage",
      "outputs": [
        {
          "internalType": "uint256",
          "name": "",
          "type": "uint256"
        }
      ],
      "stateMutability": "view",
      "type": "function",
      "constant": true
    },
    {
      "inputs": [],
      "name": "owner",
      "outputs": [
        {
          "internalType": "address",
          "name": "",
          "type": "address"
        }
      ],
      "stateMutability": "view",
      "type": "function",
      "constant": true
    },
    {
      "inputs": [],
      "name": "registrationValidatorContract",
      "outputs": [
        {
          "internalType": "address",
          "name": "",
          "type": "address"
        }
      ],
      "stateMutability": "view",
      "type": "function",
      "constant": true
    },
    {
      "inputs": [
        {
          "internalType": "address",
          "name": "_addr",
          "type": "address"
        }
      ],
      "name": "setRegistrationValidatorContract",
      "outputs": [],
      "stateMutability": "nonpayable",
      "type": "function"
    },
    {
      "inputs": [
        {
          "internalType": "address",
          "name": "_subject",
          "type": "address"
        },
        {
          "internalType": "uint256[]",
          "name": "_inputs",
          "type": "uint256[]"
        }
      ],
      "name": "modifyAttributeStorage",
      "outputs": [],
      "stateMutability": "nonpayable",
      "type": "function"
    },
    {
      "inputs": [
        {
          "internalType": "address",
          "name": "_user",
          "type": "address"
        }
      ],
      "name": "getAttributesFromAddress",
      "outputs": [
        {
          "internalType": "uint256[]",
          "name": "",
          "type": "uint256[]"
        }
      ],
      "stateMutability": "view",
      "type": "function",
      "constant": true
    }
  ],
  "bytecode": "0x608060405234801561001057600080fd5b5033600160006101000a81548173ffffffffffffffffffffffffffffffffffffffff021916908373ffffffffffffffffffffffffffffffffffffffff160217905550610966806100616000396000f3fe608060405234801561001057600080fd5b50600436106100625760003560e01c8063310f1e301461006757806354525511146100835780638da5cb5b146100b3578063b5e9647a146100d1578063c9feb998146100ed578063dc3f74f01461010b575b600080fd5b610081600480360381019061007c919061053e565b61013b565b005b61009d600480360381019061009891906105bb565b61020e565b6040516100aa919061075d565b60405180910390f35b6100bb61023f565b6040516100c89190610700565b60405180910390f35b6100eb60048036038101906100e69190610567565b610265565b005b6100f56103c3565b6040516101029190610700565b60405180910390f35b6101256004803603810190610120919061053e565b6103e7565b604051610132919061071b565b60405180910390f35b600160009054906101000a900473ffffffffffffffffffffffffffffffffffffffff1673ffffffffffffffffffffffffffffffffffffffff163373ffffffffffffffffffffffffffffffffffffffff16146101cb576040517f08c379a00000000000000000000000000000000000000000000000000000000081526004016101c29061073d565b60405180910390fd5b806000806101000a81548173ffffffffffffffffffffffffffffffffffffffff021916908373ffffffffffffffffffffffffffffffffffffffff16021790555050565b6003602052816000526040600020818154811061022a57600080fd5b90600052602060002001600091509150505481565b600160009054906101000a900473ffffffffffffffffffffffffffffffffffffffff1681565b60008054906101000a900473ffffffffffffffffffffffffffffffffffffffff1673ffffffffffffffffffffffffffffffffffffffff163373ffffffffffffffffffffffffffffffffffffffff16146102f3576040517f08c379a00000000000000000000000000000000000000000000000000000000081526004016102ea9061073d565b60405180910390fd5b6000600360008473ffffffffffffffffffffffffffffffffffffffff1673ffffffffffffffffffffffffffffffffffffffff168152602001908152602001600020905060005b82518110156103bd578183828151811061037c577f4e487b7100000000000000000000000000000000000000000000000000000000600052603260045260246000fd5b6020026020010151908060018154018082558091505060019003906000526020600020016000909190919091505580806103b59061085b565b915050610339565b50505050565b60008054906101000a900473ffffffffffffffffffffffffffffffffffffffff1681565b6060600360008373ffffffffffffffffffffffffffffffffffffffff1673ffffffffffffffffffffffffffffffffffffffff16815260200190815260200160002080548060200260200160405190810160405280929190818152602001828054801561047257602002820191906000526020600020905b81548152602001906001019080831161045e575b50505050509050919050565b600061049161048c846107a9565b610778565b905080838252602082019050828560208602820111156104b057600080fd5b60005b858110156104e057816104c68882610529565b8452602084019350602083019250506001810190506104b3565b5050509392505050565b6000813590506104f981610902565b92915050565b600082601f83011261051057600080fd5b813561052084826020860161047e565b91505092915050565b60008135905061053881610919565b92915050565b60006020828403121561055057600080fd5b600061055e848285016104ea565b91505092915050565b6000806040838503121561057a57600080fd5b6000610588858286016104ea565b925050602083013567ffffffffffffffff8111156105a557600080fd5b6105b1858286016104ff565b9150509250929050565b600080604083850312156105ce57600080fd5b60006105dc858286016104ea565b92505060206105ed85828601610529565b9150509250929050565b600061060383836106e2565b60208301905092915050565b6106188161081f565b82525050565b6000610629826107e5565b61063381856107fd565b935061063e836107d5565b8060005b8381101561066f57815161065688826105f7565b9750610661836107f0565b925050600181019050610642565b5085935050505092915050565b600061068960258361080e565b91507f4f6e6c7920746865206f776e65722063616e2063616c6c20746869732066756e60008301527f6374696f6e0000000000000000000000000000000000000000000000000000006020830152604082019050919050565b6106eb81610851565b82525050565b6106fa81610851565b82525050565b6000602082019050610715600083018461060f565b92915050565b60006020820190508181036000830152610735818461061e565b905092915050565b600060208201905081810360008301526107568161067c565b9050919050565b600060208201905061077260008301846106f1565b92915050565b6000604051905081810181811067ffffffffffffffff8211171561079f5761079e6108d3565b5b8060405250919050565b600067ffffffffffffffff8211156107c4576107c36108d3565b5b602082029050602081019050919050565b6000819050602082019050919050565b600081519050919050565b6000602082019050919050565b600082825260208201905092915050565b600082825260208201905092915050565b600061082a82610831565b9050919050565b600073ffffffffffffffffffffffffffffffffffffffff82169050919050565b6000819050919050565b600061086682610851565b91507fffffffffffffffffffffffffffffffffffffffffffffffffffffffffffffffff821415610899576108986108a4565b5b600182019050919050565b7f4e487b7100000000000000000000000000000000000000000000000000000000600052601160045260246000fd5b7f4e487b7100000000000000000000000000000000000000000000000000000000600052604160045260246000fd5b61090b8161081f565b811461091657600080fd5b50565b61092281610851565b811461092d57600080fd5b5056fea264697066735822122001034b393c3ec7f31ee5a62d26aa122202f2ade1b020a7dce0514fe45a65f23064736f6c63430008000033",
  "immutableReferences": {},
  "source": "// SPDX-License-Identifier: MIT\r\npragma solidity ^0.8.0;\r\n\r\n//interface IAttributeStorage {\r\n  //      function getPolicyEntry(bytes4 _funcId) external view returns (int[] memory);\r\n    //}\r\n\r\ncontract Attribute_Storage_Contract {\r\n\r\n    address public registrationValidatorContract;\r\n\r\n    address public owner;\r\n\r\n    int value_check_id; \r\n\r\n    mapping(address => uint[]) public Attribute_Storage;\r\n\r\n    struct attribute{\r\n        uint bestandene_value_checks; \r\n    }\r\n\r\n\r\n    constructor() {\r\n        owner = msg.sender;\r\n    }\r\n\r\n\r\n    function setRegistrationValidatorContract(address _addr) public {\r\n        require(msg.sender == owner, \"Only the owner can call this function\");\r\n        registrationValidatorContract = _addr;\r\n    }    \r\n\r\n    \r\n\r\n    function modifyAttributeStorage(address _subject, uint[] memory _inputs) public {\r\n        require(msg.sender == registrationValidatorContract, \"Only the owner can call this function\"); // Only Registration Validator should be able to call this \r\n\r\n        uint[] storage subjectAttributes = Attribute_Storage[_subject];\r\n        \r\n        // Clear existing attributes for the subject\r\n        //delete subjectAttributes;\r\n        \r\n        // Copy each element from _inputs to storage\r\n        for (uint i = 0; i < _inputs.length; i++) {\r\n            subjectAttributes.push(_inputs[i]);\r\n        }\r\n    }\r\n    \r\n    function getAttributesFromAddress(address _user) public view returns(uint[] memory) {\r\n        return Attribute_Storage[_user];\r\n    }\r\n\r\n}\r\n\r\n\r\n",
  "sourcePath": "C:\\Users\\mike1\\Desktop\\Masterarbeit\\Code\\Smart_Contracts\\contracts\\Attribute_Storage.sol",
  "compiler": {
    "name": "solc",
    "version": "0.8.0+commit.c7dfd78e.Emscripten.clang"
  },
  "schemaVersion": "3.4.16",
  "updatedAt": "2024-06-02T20:50:10.921Z",
  "networkType": "ethereum",
  "devdoc": {
    "kind": "dev",
    "methods": {},
    "version": 1
  },
  "userdoc": {
    "kind": "user",
    "methods": {},
    "version": 1
  }
}