{
  "contractName": "Policy_Storage_Contract",
  "abi": [
    {
      "inputs": [],
      "stateMutability": "nonpayable",
      "type": "constructor"
    },
    {
      "inputs": [],
      "name": "owner",
      "outputs": [
        {
          "internalType": "address",
          "name": "",
          "type": "address"
        }
      ],
      "stateMutability": "view",
      "type": "function",
      "constant": true
    },
    {
      "inputs": [
        {
          "internalType": "bytes4",
          "name": "_funcId",
          "type": "bytes4"
        },
        {
          "internalType": "uint256[]",
          "name": "_valueCheckIds",
          "type": "uint256[]"
        }
      ],
      "name": "addPolicyEntry",
      "outputs": [],
      "stateMutability": "nonpayable",
      "type": "function"
    },
    {
      "inputs": [
        {
          "internalType": "bytes4",
          "name": "_funcId",
          "type": "bytes4"
        }
      ],
      "name": "getPolicyEntry",
      "outputs": [
        {
          "internalType": "uint256[]",
          "name": "",
          "type": "uint256[]"
        }
      ],
      "stateMutability": "view",
      "type": "function",
      "constant": true
    }
  ],
  "bytecode": "0x608060405234801561001057600080fd5b5033600160006101000a81548173ffffffffffffffffffffffffffffffffffffffff021916908373ffffffffffffffffffffffffffffffffffffffff160217905550610797806100616000396000f3fe608060405234801561001057600080fd5b50600436106100415760003560e01c8063492dfe62146100465780635008a8dd146100625780638da5cb5b14610092575b600080fd5b610060600480360381019061005b91906103d2565b6100b0565b005b61007c600480360381019061007791906103a9565b61021b565b604051610089919061053b565b60405180910390f35b61009a6102c3565b6040516100a79190610520565b60405180910390f35b600160009054906101000a900473ffffffffffffffffffffffffffffffffffffffff1673ffffffffffffffffffffffffffffffffffffffff163373ffffffffffffffffffffffffffffffffffffffff1614610140576040517f08c379a00000000000000000000000000000000000000000000000000000000081526004016101379061055d565b60405180910390fd5b60005b815181101561021657600080847bffffffffffffffffffffffffffffffffffffffffffffffffffffffff19167bffffffffffffffffffffffffffffffffffffffffffffffffffffffff191681526020019081526020016000208282815181106101d5577f4e487b7100000000000000000000000000000000000000000000000000000000600052603260045260246000fd5b60200260200101519080600181540180825580915050600190039060005260206000200160009091909190915055808061020e9061068c565b915050610143565b505050565b6060600080837bffffffffffffffffffffffffffffffffffffffffffffffffffffffff19167bffffffffffffffffffffffffffffffffffffffffffffffffffffffff191681526020019081526020016000208054806020026020016040519081016040528092919081815260200182805480156102b757602002820191906000526020600020905b8154815260200190600101908083116102a3575b50505050509050919050565b600160009054906101000a900473ffffffffffffffffffffffffffffffffffffffff1681565b60006102fc6102f7846105ae565b61057d565b9050808382526020820190508285602086028201111561031b57600080fd5b60005b8581101561034b57816103318882610394565b84526020840193506020830192505060018101905061031e565b5050509392505050565b600082601f83011261036657600080fd5b81356103768482602086016102e9565b91505092915050565b60008135905061038e81610733565b92915050565b6000813590506103a38161074a565b92915050565b6000602082840312156103bb57600080fd5b60006103c98482850161037f565b91505092915050565b600080604083850312156103e557600080fd5b60006103f38582860161037f565b925050602083013567ffffffffffffffff81111561041057600080fd5b61041c85828601610355565b9150509250929050565b60006104328383610511565b60208301905092915050565b61044781610624565b82525050565b6000610458826105ea565b6104628185610602565b935061046d836105da565b8060005b8381101561049e5781516104858882610426565b9750610490836105f5565b925050600181019050610471565b5085935050505092915050565b60006104b8602c83610613565b91507f4f6e6c7920746865206f776e65722069732061626c6520746f2063616c6c207460008301527f6869732066756e6374696f6e00000000000000000000000000000000000000006020830152604082019050919050565b61051a81610682565b82525050565b6000602082019050610535600083018461043e565b92915050565b60006020820190508181036000830152610555818461044d565b905092915050565b60006020820190508181036000830152610576816104ab565b9050919050565b6000604051905081810181811067ffffffffffffffff821117156105a4576105a3610704565b5b8060405250919050565b600067ffffffffffffffff8211156105c9576105c8610704565b5b602082029050602081019050919050565b6000819050602082019050919050565b600081519050919050565b6000602082019050919050565b600082825260208201905092915050565b600082825260208201905092915050565b600061062f82610662565b9050919050565b60007fffffffff0000000000000000000000000000000000000000000000000000000082169050919050565b600073ffffffffffffffffffffffffffffffffffffffff82169050919050565b6000819050919050565b600061069782610682565b91507fffffffffffffffffffffffffffffffffffffffffffffffffffffffffffffffff8214156106ca576106c96106d5565b5b600182019050919050565b7f4e487b7100000000000000000000000000000000000000000000000000000000600052601160045260246000fd5b7f4e487b7100000000000000000000000000000000000000000000000000000000600052604160045260246000fd5b61073c81610636565b811461074757600080fd5b50565b61075381610682565b811461075e57600080fd5b5056fea264697066735822122029f6018d5180d515b0b57028f38f40fd09752179ba0813d7466467196e140efb64736f6c63430008000033",
  "immutableReferences": {},
  "source": "// SPDX-License-Identifier: MIT\r\npragma solidity ^0.8.0;\r\n\r\ninterface IPolicyStorage {\r\n        function getPolicyEntry(bytes4 _funcId) external view returns (int[] memory);\r\n    }\r\n\r\n\r\ncontract Policy_Storage_Contract{\r\n\r\n    \r\n    struct attribute{\r\n        string bestandene_value_checks; \r\n    }\r\n\r\n    struct value_check_liste{\r\n        uint[] value_check_id; \r\n    }\r\n\r\n    struct Value_Check {\r\n        string value_check_id;\r\n        string attribute_id; \r\n        string predicate;\r\n        string attribute_value; \r\n        string[] selected_issuers;\r\n    }\r\n\r\n    mapping(bytes4 => uint[]) internal Policy_Storage;\r\n    //mapping(address => attribute[]) public \r\n\r\n    address public owner;\r\n\r\n    constructor() {\r\n        owner = msg.sender;\r\n    }\r\n\r\n    function addPolicyEntry(bytes4 _funcId, uint[] memory _valueCheckIds) public {\r\n        // Can also be used for existing entries in the Policy Storage\r\n        require(msg.sender == owner , \"Only the owner is able to call this function\");\r\n        for (uint i = 0; i < _valueCheckIds.length; i++) {\r\n            Policy_Storage[_funcId].push(_valueCheckIds[i]);\r\n        }\r\n    }\r\n\r\n  //  function addValueCheckIdsToExistingPolicy(bytes4 _funcId, uint[] memory _newIds) public {\r\n   //     value_check_liste storage entry = Policy_Storage[_funcId];\r\n   //     for (uint i = 0; i < _newIds.length; i++) {\r\n  //          entry.value_check_id.push(_newIds[i]);\r\n    //    }\r\n    //}\r\n\r\n //   function removeValueCheckIdFromExistingPolicy(bytes4 _funcId, uint _idToRemove) public {\r\n  //      require(msg.sender == owner, \"Only the owner can call this function\"); // Only Registration Validator should be able to call this\r\n  //      value_check_liste storage entry = Policy_Storage[_funcId];\r\n  //      uint length = entry.value_check_id.length;\r\n  //      for (uint i = 0; i < length; i++) {\r\n   //         if (entry.value_check_id[i] == _idToRemove) {\r\n        //        entry.value_check_id[i] = entry.value_check_id[length - 1];\r\n       //         entry.value_check_id.pop();\r\n      //          break;\r\n //           }\r\n //       }\r\n //   }\r\n\r\n    function getPolicyEntry(bytes4 _funcId) external view returns (uint[] memory) {\r\n        return Policy_Storage[_funcId];\r\n    }\r\n    \r\n\r\n}",
  "sourcePath": "C:\\Users\\mike1\\Desktop\\Masterarbeit\\Code\\Smart_Contracts\\contracts\\Policy_Storage.sol",
  "compiler": {
    "name": "solc",
    "version": "0.8.0+commit.c7dfd78e.Emscripten.clang"
  },
  "schemaVersion": "3.4.16",
  "updatedAt": "2024-06-02T20:50:10.914Z",
  "networkType": "ethereum",
  "devdoc": {
    "kind": "dev",
    "methods": {},
    "version": 1
  },
  "userdoc": {
    "kind": "user",
    "methods": {},
    "version": 1
  }
}