{
  "contractName": "Registration_Validator_Contract",
  "abi": [
    {
      "inputs": [
        {
          "internalType": "address",
          "name": "_attributeStorageContractAddress",
          "type": "address"
        },
        {
          "internalType": "address",
          "name": "_VSCContractAddress",
          "type": "address"
        },
        {
          "internalType": "uint256[]",
          "name": "_valuechecks",
          "type": "uint256[]"
        }
      ],
      "stateMutability": "nonpayable",
      "type": "constructor"
    },
    {
      "inputs": [],
      "name": "attributeStorage",
      "outputs": [
        {
          "internalType": "contract IAttributeStorage",
          "name": "",
          "type": "address"
        }
      ],
      "stateMutability": "view",
      "type": "function",
      "constant": true
    },
    {
      "inputs": [],
      "name": "owner",
      "outputs": [
        {
          "internalType": "address",
          "name": "",
          "type": "address"
        }
      ],
      "stateMutability": "view",
      "type": "function",
      "constant": true
    },
    {
      "inputs": [
        {
          "internalType": "uint256",
          "name": "VSCid",
          "type": "uint256"
        },
        {
          "internalType": "address",
          "name": "contractAddress",
          "type": "address"
        },
        {
          "internalType": "uint256[]",
          "name": "_valuechecks",
          "type": "uint256[]"
        }
      ],
      "name": "registerVSC",
      "outputs": [],
      "stateMutability": "nonpayable",
      "type": "function"
    },
    {
      "inputs": [
        {
          "components": [
            {
              "components": [
                {
                  "internalType": "uint256",
                  "name": "X",
                  "type": "uint256"
                },
                {
                  "internalType": "uint256",
                  "name": "Y",
                  "type": "uint256"
                }
              ],
              "internalType": "struct G1Point",
              "name": "a",
              "type": "tuple"
            },
            {
              "components": [
                {
                  "internalType": "uint256[2]",
                  "name": "X",
                  "type": "uint256[2]"
                },
                {
                  "internalType": "uint256[2]",
                  "name": "Y",
                  "type": "uint256[2]"
                }
              ],
              "internalType": "struct G2Point",
              "name": "b",
              "type": "tuple"
            },
            {
              "components": [
                {
                  "internalType": "uint256",
                  "name": "X",
                  "type": "uint256"
                },
                {
                  "internalType": "uint256",
                  "name": "Y",
                  "type": "uint256"
                }
              ],
              "internalType": "struct G1Point",
              "name": "c",
              "type": "tuple"
            }
          ],
          "internalType": "struct Proof",
          "name": "_proof",
          "type": "tuple"
        },
        {
          "internalType": "uint256[56]",
          "name": "input",
          "type": "uint256[56]"
        },
        {
          "internalType": "uint256",
          "name": "_idVSC",
          "type": "uint256"
        }
      ],
      "name": "registration",
      "outputs": [
        {
          "internalType": "bool",
          "name": "",
          "type": "bool"
        }
      ],
      "stateMutability": "nonpayable",
      "type": "function"
    }
  ],
  "bytecode": "0x60806040523480156200001157600080fd5b5060405162001350380380620013508339818101604052810190620000379190620002ab565b336000806101000a81548173ffffffffffffffffffffffffffffffffffffffff021916908373ffffffffffffffffffffffffffffffffffffffff16021790555081600260006001815260200190815260200160002060006101000a81548173ffffffffffffffffffffffffffffffffffffffff021916908373ffffffffffffffffffffffffffffffffffffffff16021790555080600360008473ffffffffffffffffffffffffffffffffffffffff1673ffffffffffffffffffffffffffffffffffffffff16815260200190815260200160002090805190602001906200011f9291906200016a565b5082600160006101000a81548173ffffffffffffffffffffffffffffffffffffffff021916908373ffffffffffffffffffffffffffffffffffffffff1602179055505050506200041e565b828054828255906000526020600020908101928215620001a9579160200282015b82811115620001a85782518255916020019190600101906200018b565b5b509050620001b89190620001bc565b5090565b5b80821115620001d7576000816000905550600101620001bd565b5090565b6000620001f2620001ec846200034e565b6200031a565b905080838252602082019050828560208602820111156200021257600080fd5b60005b858110156200024657816200022b888262000294565b84526020840193506020830192505060018101905062000215565b5050509392505050565b6000815190506200026181620003ea565b92915050565b600082601f8301126200027957600080fd5b81516200028b848260208601620001db565b91505092915050565b600081519050620002a58162000404565b92915050565b600080600060608486031215620002c157600080fd5b6000620002d18682870162000250565b9350506020620002e48682870162000250565b925050604084015167ffffffffffffffff8111156200030257600080fd5b620003108682870162000267565b9150509250925092565b6000604051905081810181811067ffffffffffffffff82111715620003445762000343620003bb565b5b8060405250919050565b600067ffffffffffffffff8211156200036c576200036b620003bb565b5b602082029050602081019050919050565b60006200038a8262000391565b9050919050565b600073ffffffffffffffffffffffffffffffffffffffff82169050919050565b6000819050919050565b7f4e487b7100000000000000000000000000000000000000000000000000000000600052604160045260246000fd5b620003f5816200037d565b81146200040157600080fd5b50565b6200040f81620003b1565b81146200041b57600080fd5b50565b610f22806200042e6000396000f3fe608060405234801561001057600080fd5b506004361061004c5760003560e01c80634ab2e9a5146100515780637208b0e614610081578063877fdeba1461009d5780638da5cb5b146100bb575b600080fd5b61006b60048036038101906100669190610823565b6100d9565b6040516100789190610bd5565b60405180910390f35b61009b60048036038101906100969190610875565b6102bb565b005b6100a5610464565b6040516100b29190610bf0565b60405180910390f35b6100c361048a565b6040516100d09190610b8a565b60405180910390f35b6000806002600084815260200190815260200160002060009054906101000a900473ffffffffffffffffffffffffffffffffffffffff16905060008173ffffffffffffffffffffffffffffffffffffffff1663b581abe687876040518363ffffffff1660e01b815260040161014f929190610c4b565b60206040518083038186803b15801561016757600080fd5b505afa15801561017b573d6000803e3d6000fd5b505050506040513d601f19601f8201168201806040525081019061019f91906107fa565b90506001151581151514156102af57600160009054906101000a900473ffffffffffffffffffffffffffffffffffffffff1673ffffffffffffffffffffffffffffffffffffffff1663b5e9647a3360036000600260008a815260200190815260200160002060009054906101000a900473ffffffffffffffffffffffffffffffffffffffff1673ffffffffffffffffffffffffffffffffffffffff1673ffffffffffffffffffffffffffffffffffffffff1681526020019081526020016000206040518363ffffffff1660e01b815260040161027c929190610ba5565b600060405180830381600087803b15801561029657600080fd5b505af11580156102aa573d6000803e3d6000fd5b505050505b80925050509392505050565b600073ffffffffffffffffffffffffffffffffffffffff168273ffffffffffffffffffffffffffffffffffffffff16141561032b576040517f08c379a000000000000000000000000000000000000000000000000000000000815260040161032290610c0b565b60405180910390fd5b60008054906101000a900473ffffffffffffffffffffffffffffffffffffffff1673ffffffffffffffffffffffffffffffffffffffff163373ffffffffffffffffffffffffffffffffffffffff16146103b9576040517f08c379a00000000000000000000000000000000000000000000000000000000081526004016103b090610c2b565b60405180910390fd5b816002600085815260200190815260200160002060006101000a81548173ffffffffffffffffffffffffffffffffffffffff021916908373ffffffffffffffffffffffffffffffffffffffff16021790555080600360008473ffffffffffffffffffffffffffffffffffffffff1673ffffffffffffffffffffffffffffffffffffffff168152602001908152602001600020908051906020019061045e9291906104ae565b50505050565b600160009054906101000a900473ffffffffffffffffffffffffffffffffffffffff1681565b60008054906101000a900473ffffffffffffffffffffffffffffffffffffffff1681565b8280548282559060005260206000209081019282156104ea579160200282015b828111156104e95782518255916020019190600101906104ce565b5b5090506104f791906104fb565b5090565b5b808211156105145760008160009055506001016104fc565b5090565b600061052b61052684610ca7565b610c76565b9050808285602086028201111561054157600080fd5b60005b85811015610571578161055788826107e5565b845260208401935060208301925050600181019050610544565b5050509392505050565b600061058e61058984610ccd565b610c76565b905080828560208602820111156105a457600080fd5b60005b858110156105d457816105ba88826107e5565b8452602084019350602083019250506001810190506105a7565b5050509392505050565b60006105f16105ec84610cf3565b610c76565b9050808382526020820190508285602086028201111561061057600080fd5b60005b85811015610640578161062688826107e5565b845260208401935060208301925050600181019050610613565b5050509392505050565b60008135905061065981610ea7565b92915050565b600082601f83011261067057600080fd5b600261067d848285610518565b91505092915050565b600082601f83011261069757600080fd5b60386106a484828561057b565b91505092915050565b600082601f8301126106be57600080fd5b81356106ce8482602086016105de565b91505092915050565b6000815190506106e681610ebe565b92915050565b6000604082840312156106fe57600080fd5b6107086040610c76565b90506000610718848285016107e5565b600083015250602061072c848285016107e5565b60208301525092915050565b60006080828403121561074a57600080fd5b6107546040610c76565b905060006107648482850161065f565b60008301525060406107788482850161065f565b60208301525092915050565b6000610100828403121561079757600080fd5b6107a16060610c76565b905060006107b1848285016106ec565b60008301525060406107c584828501610738565b60208301525060c06107d9848285016106ec565b60408301525092915050565b6000813590506107f481610ed5565b92915050565b60006020828403121561080c57600080fd5b600061081a848285016106d7565b91505092915050565b6000806000610820848603121561083957600080fd5b600061084786828701610784565b93505061010061085986828701610686565b92505061080061086b868287016107e5565b9150509250925092565b60008060006060848603121561088a57600080fd5b6000610898868287016107e5565b93505060206108a98682870161064a565b925050604084013567ffffffffffffffff8111156108c657600080fd5b6108d2868287016106ad565b9150509250925092565b60006108e88383610b7b565b60208301905092915050565b6108fd81610dd2565b82525050565b61090c81610d48565b6109168184610d90565b925061092182610d1f565b8060005b8381101561095257815161093987826108dc565b965061094483610d69565b925050600181019050610925565b505050505050565b61096381610d53565b61096d8184610d9b565b925061097882610d29565b8060005b838110156109a957815161099087826108dc565b965061099b83610d76565b92505060018101905061097c565b505050505050565b60006109bc82610d5e565b6109c68185610da6565b93506109d183610d33565b8060005b83811015610a09576109e682610e87565b6109f088826108dc565b97506109fb83610d83565b9250506001810190506109d5565b5085935050505092915050565b610a1f81610de4565b82525050565b610a2e81610e1a565b82525050565b6000610a41600f83610db7565b91507f496e76616c6964206164647265737300000000000000000000000000000000006000830152602082019050919050565b6000610a81602b83610db7565b91507f4f6e6c79204f776e657220697320616c6c6f77656420746f2063616c6c20746860008301527f61742066756e6374696f6e0000000000000000000000000000000000000000006020830152604082019050919050565b604082016000820151610af06000850182610b7b565b506020820151610b036020850182610b7b565b50505050565b608082016000820151610b1f6000850182610903565b506020820151610b326040850182610903565b50505050565b61010082016000820151610b4f6000850182610ada565b506020820151610b626040850182610b09565b506040820151610b7560c0850182610ada565b50505050565b610b8481610e10565b82525050565b6000602082019050610b9f60008301846108f4565b92915050565b6000604082019050610bba60008301856108f4565b8181036020830152610bcc81846109b1565b90509392505050565b6000602082019050610bea6000830184610a16565b92915050565b6000602082019050610c056000830184610a25565b92915050565b60006020820190508181036000830152610c2481610a34565b9050919050565b60006020820190508181036000830152610c4481610a74565b9050919050565b600061080082019050610c616000830185610b38565b610c6f61010083018461095a565b9392505050565b6000604051905081810181811067ffffffffffffffff82111715610c9d57610c9c610e58565b5b8060405250919050565b600067ffffffffffffffff821115610cc257610cc1610e58565b5b602082029050919050565b600067ffffffffffffffff821115610ce857610ce7610e58565b5b602082029050919050565b600067ffffffffffffffff821115610d0e57610d0d610e58565b5b602082029050602081019050919050565b6000819050919050565b6000819050919050565b60008190508160005260206000209050919050565b600060029050919050565b600060389050919050565b600081549050919050565b6000602082019050919050565b6000602082019050919050565b6000600182019050919050565b600081905092915050565b600081905092915050565b600082825260208201905092915050565b600082825260208201905092915050565b6000819050919050565b6000610ddd82610df0565b9050919050565b60008115159050919050565b600073ffffffffffffffffffffffffffffffffffffffff82169050919050565b6000819050919050565b6000610e2582610e2c565b9050919050565b6000610e3782610df0565b9050919050565b6000610e51610e4c83610e9a565b610dc8565b9050919050565b7f4e487b7100000000000000000000000000000000000000000000000000000000600052604160045260246000fd5b6000610e938254610e3e565b9050919050565b60008160001c9050919050565b610eb081610dd2565b8114610ebb57600080fd5b50565b610ec781610de4565b8114610ed257600080fd5b50565b610ede81610e10565b8114610ee957600080fd5b5056fea26469706673582212208d7a22e9e354efa1cc21ecd12313d192a5ab44cd11e32850363440d81a58f08b64736f6c63430008000033",
  "immutableReferences": {},
  "source": "pragma solidity ^0.8.0;\r\n\r\nstruct G1Point {\r\n        uint X;\r\n        uint Y;\r\n    }\r\n\r\n    struct G2Point {\r\n        uint[2] X;\r\n        uint[2] Y;\r\n    }\r\n\r\n    struct Proof {\r\n        G1Point a;\r\n        G2Point b;\r\n        G1Point c;\r\n    }\r\n\r\ninterface IAttributeStorage {\r\n    function modifyAttributeStorage(address _subject, uint[] memory _inputs) external;\r\n}\r\n\r\ninterface IVerifier {\r\n    function verifyTx(Proof memory proof, uint[56] memory input) external view returns (bool);\r\n}\r\n\r\n\r\n\r\n\r\n\r\n\r\ncontract Registration_Validator_Contract{\r\n\r\n    address public owner; \r\n\r\n    //address public VSC;\r\n\r\n    IAttributeStorage public attributeStorage;\r\n    //IVerifier public vsc; \r\n\r\n    mapping(uint => address) private VSCregistry; \r\n    mapping(address => uint[]) private ValueChecks; \r\n\r\n    // elliptic curve points for proof verification\r\n    \r\n\r\n    constructor( address _attributeStorageContractAddress, address _VSCContractAddress, uint[] memory _valuechecks) {\r\n        owner = msg.sender;\r\n        VSCregistry[1] = _VSCContractAddress ;\r\n        ValueChecks[_VSCContractAddress] = _valuechecks; \r\n        attributeStorage = IAttributeStorage(_attributeStorageContractAddress);\r\n\r\n        //vsc = IVerifier(_VSCContractAddress); \r\n    }\r\n\r\n    function registerVSC(uint VSCid, address contractAddress, uint[] memory _valuechecks) public {\r\n        require(contractAddress != address(0), \"Invalid address\");\r\n        require(msg.sender == owner, \"Only Owner is allowed to call that function\");\r\n        VSCregistry[VSCid] = contractAddress;\r\n        ValueChecks[contractAddress] = _valuechecks; \r\n    }\r\n\r\n    function registration(Proof memory _proof, uint[56] memory input, uint _idVSC) public returns(bool){\r\n        IVerifier instance = IVerifier(VSCregistry[_idVSC]);\r\n        bool verification = instance.verifyTx(_proof, input);\r\n        //bool verification = vsc.verifyTx(_proof, input);\r\n        if(verification == true){\r\n            attributeStorage.modifyAttributeStorage(msg.sender, ValueChecks[VSCregistry[_idVSC]]); \r\n        }\r\n        return verification; \r\n\r\n    }\r\n\r\n    \r\n\r\n}\r\n",
  "sourcePath": "C:\\Users\\mike1\\Desktop\\Masterarbeit\\Code\\Smart_Contracts\\contracts\\Registration_Validator.sol",
  "compiler": {
    "name": "solc",
    "version": "0.8.0+commit.c7dfd78e.Emscripten.clang"
  },
  "schemaVersion": "3.4.16",
  "updatedAt": "2024-06-02T20:50:10.979Z",
  "networkType": "ethereum",
  "devdoc": {
    "kind": "dev",
    "methods": {},
    "version": 1
  },
  "userdoc": {
    "kind": "user",
    "methods": {},
    "version": 1
  }
}