{
  "contractName": "Test_Contract",
  "abi": [
    {
      "inputs": [
        {
          "internalType": "address",
          "name": "_policyContractAddress",
          "type": "address"
        }
      ],
      "stateMutability": "nonpayable",
      "type": "constructor"
    },
    {
      "inputs": [],
      "name": "policyStorage",
      "outputs": [
        {
          "internalType": "contract IPolicyStorage",
          "name": "",
          "type": "address"
        }
      ],
      "stateMutability": "view",
      "type": "function"
    },
    {
      "inputs": [
        {
          "internalType": "bytes4",
          "name": "_funcId",
          "type": "bytes4"
        }
      ],
      "name": "useGetPolicyEntry",
      "outputs": [
        {
          "internalType": "int256[]",
          "name": "",
          "type": "int256[]"
        }
      ],
      "stateMutability": "view",
      "type": "function"
    }
  ],
  "bytecode": "0x608060405234801561001057600080fd5b5060405161063a38038061063a8339818101604052810190610032919061008d565b806000806101000a81548173ffffffffffffffffffffffffffffffffffffffff021916908373ffffffffffffffffffffffffffffffffffffffff160217905550506100ff565b600081519050610087816100e8565b92915050565b60006020828403121561009f57600080fd5b60006100ad84828501610078565b91505092915050565b60006100c1826100c8565b9050919050565b600073ffffffffffffffffffffffffffffffffffffffff82169050919050565b6100f1816100b6565b81146100fc57600080fd5b50565b61052c8061010e6000396000f3fe608060405234801561001057600080fd5b50600436106100365760003560e01c806338facd8e1461003b578063599fe9ec1461006b575b600080fd5b61005560048036038101906100509190610265565b610089565b6040516100629190610331565b60405180910390f35b610073610140565b604051610080919061036e565b60405180910390f35b606060008054906101000a900473ffffffffffffffffffffffffffffffffffffffff1673ffffffffffffffffffffffffffffffffffffffff16635008a8dd836040518263ffffffff1660e01b81526004016100e49190610353565b60006040518083038186803b1580156100fc57600080fd5b505afa158015610110573d6000803e3d6000fd5b505050506040513d6000823e3d601f19601f820116820180604052508101906101399190610224565b9050919050565b60008054906101000a900473ffffffffffffffffffffffffffffffffffffffff1681565b6000610177610172846103ba565b610389565b9050808382526020820190508285602086028201111561019657600080fd5b60005b858110156101c657816101ac888261020f565b845260208401935060208301925050600181019050610199565b5050509392505050565b600082601f8301126101e157600080fd5b81516101f1848260208601610164565b91505092915050565b600081359050610209816104c8565b92915050565b60008151905061021e816104df565b92915050565b60006020828403121561023657600080fd5b600082015167ffffffffffffffff81111561025057600080fd5b61025c848285016101d0565b91505092915050565b60006020828403121561027757600080fd5b6000610285848285016101fa565b91505092915050565b600061029a8383610322565b60208301905092915050565b60006102b1826103f6565b6102bb818561040e565b93506102c6836103e6565b8060005b838110156102f75781516102de888261028e565b97506102e983610401565b9250506001810190506102ca565b5085935050505092915050565b61030d8161041f565b82525050565b61031c81610475565b82525050565b61032b8161044b565b82525050565b6000602082019050818103600083015261034b81846102a6565b905092915050565b60006020820190506103686000830184610304565b92915050565b60006020820190506103836000830184610313565b92915050565b6000604051905081810181811067ffffffffffffffff821117156103b0576103af610499565b5b8060405250919050565b600067ffffffffffffffff8211156103d5576103d4610499565b5b602082029050602081019050919050565b6000819050602082019050919050565b600081519050919050565b6000602082019050919050565b600082825260208201905092915050565b60007fffffffff0000000000000000000000000000000000000000000000000000000082169050919050565b6000819050919050565b600073ffffffffffffffffffffffffffffffffffffffff82169050919050565b600061048082610487565b9050919050565b600061049282610455565b9050919050565b7f4e487b7100000000000000000000000000000000000000000000000000000000600052604160045260246000fd5b6104d18161041f565b81146104dc57600080fd5b50565b6104e88161044b565b81146104f357600080fd5b5056fea26469706673582212201b84e4e3fafdbb166ae7bd7308c261061f8057e480a8cd8197204124591b7da264736f6c63430008000033",
  "immutableReferences": {},
  "source": "pragma solidity ^0.8.0;\r\n\r\n\r\ninterface IPolicyStorage {\r\n    function getPolicyEntry(bytes4 _funcId) external view returns (int[] memory);\r\n}\r\n\r\n\r\ncontract Test_Contract {\r\n\r\n\r\n\r\n\r\n    IPolicyStorage public policyStorage; \r\n    //IAttributeStorage attributeStorage; \r\n\r\n    //enum RuleEvaluation { DENY, PERMIT, NOTAPPLICABLE, INDETERMINATE }\r\n\r\n\r\n    constructor(address _policyContractAddress) {\r\n        //owner = msg.sender;\r\n        policyStorage = IPolicyStorage(_policyContractAddress);\r\n\r\n    }\r\n\r\n    function useGetPolicyEntry(bytes4 _funcId) public view returns (int[] memory) {\r\n        return policyStorage.getPolicyEntry(_funcId);\r\n    }\r\n\r\n}",
  "sourcePath": "C:\\Users\\mike1\\Desktop\\Masterarbeit\\Code\\Smart_Contracts\\contracts\\test.sol",
  "compiler": {
    "name": "solc",
    "version": "0.8.0+commit.c7dfd78e.Emscripten.clang"
  },
  "schemaVersion": "3.4.16",
  "updatedAt": "2024-06-02T20:50:04.623Z",
  "devdoc": {
    "kind": "dev",
    "methods": {},
    "version": 1
  },
  "userdoc": {
    "kind": "user",
    "methods": {},
    "version": 1
  }
}