{
  "contractName": "VPR_Registry_Contract",
  "abi": [
    {
      "inputs": [],
      "stateMutability": "nonpayable",
      "type": "constructor"
    },
    {
      "inputs": [],
      "name": "owner",
      "outputs": [
        {
          "internalType": "address",
          "name": "",
          "type": "address"
        }
      ],
      "stateMutability": "view",
      "type": "function",
      "constant": true
    },
    {
      "inputs": [
        {
          "internalType": "uint256",
          "name": "",
          "type": "uint256"
        }
      ],
      "name": "registry",
      "outputs": [
        {
          "internalType": "bytes4",
          "name": "function_id",
          "type": "bytes4"
        },
        {
          "internalType": "string",
          "name": "CID",
          "type": "string"
        }
      ],
      "stateMutability": "view",
      "type": "function",
      "constant": true
    },
    {
      "inputs": [
        {
          "internalType": "bytes4",
          "name": "_function_id",
          "type": "bytes4"
        },
        {
          "components": [
            {
              "internalType": "int256",
              "name": "value_check_id",
              "type": "int256"
            },
            {
              "internalType": "string",
              "name": "attribute_id",
              "type": "string"
            },
            {
              "internalType": "string",
              "name": "predicate",
              "type": "string"
            },
            {
              "internalType": "string",
              "name": "attribute_value",
              "type": "string"
            },
            {
              "internalType": "string[]",
              "name": "selected_issuers",
              "type": "string[]"
            }
          ],
          "internalType": "struct VPR_Registry_Contract.Value_Check[]",
          "name": "_value_check_list",
          "type": "tuple[]"
        },
        {
          "internalType": "string",
          "name": "_CID",
          "type": "string"
        }
      ],
      "name": "addVPR",
      "outputs": [],
      "stateMutability": "nonpayable",
      "type": "function"
    }
  ],
  "bytecode": "0x608060405234801561001057600080fd5b50336000806101000a81548173ffffffffffffffffffffffffffffffffffffffff021916908373ffffffffffffffffffffffffffffffffffffffff160217905550610c2b806100606000396000f3fe608060405234801561001057600080fd5b50600436106100415760003560e01c80633ba5cb39146100465780635893253c146100625780638da5cb5b14610093575b600080fd5b610060600480360381019061005b91906107c4565b6100b1565b005b61007c60048036038101906100779190610843565b610397565b60405161008a9291906108de565b60405180910390f35b61009b610460565b6040516100a891906108c3565b60405180910390f35b6000600180816001815401808255809150500390600052602060002090600302019050838160000160006101000a81548163ffffffff021916908360e01c02179055508181600201908051906020019061010c929190610484565b5060005b8351811015610390576000826001016001816001815401808255809150500390600052602060002090600502019050848281518110610178577f4e487b7100000000000000000000000000000000000000000000000000000000600052603260045260246000fd5b60200260200101516020015181600101908051906020019061019b929190610484565b508482815181106101d5577f4e487b7100000000000000000000000000000000000000000000000000000000600052603260045260246000fd5b6020026020010151604001518160020190805190602001906101f8929190610484565b50848281518110610232577f4e487b7100000000000000000000000000000000000000000000000000000000600052603260045260246000fd5b602002602001015160600151816003019080519060200190610255929190610484565b5060005b858381518110610292577f4e487b7100000000000000000000000000000000000000000000000000000000600052603260045260246000fd5b6020026020010151608001515181101561037b57816004018684815181106102e3577f4e487b7100000000000000000000000000000000000000000000000000000000600052603260045260246000fd5b6020026020010151608001518281518110610327577f4e487b7100000000000000000000000000000000000000000000000000000000600052603260045260246000fd5b6020026020010151908060018154018082558091505060019003906000526020600020016000909190919091509080519060200190610367929190610484565b50808061037390610ac9565b915050610259565b5050808061038890610ac9565b915050610110565b5050505050565b600181815481106103a757600080fd5b90600052602060002090600302016000915090508060000160009054906101000a900460e01b908060020180546103dd90610a97565b80601f016020809104026020016040519081016040528092919081815260200182805461040990610a97565b80156104565780601f1061042b57610100808354040283529160200191610456565b820191906000526020600020905b81548152906001019060200180831161043957829003601f168201915b5050505050905082565b60008054906101000a900473ffffffffffffffffffffffffffffffffffffffff1681565b82805461049090610a97565b90600052602060002090601f0160209004810192826104b257600085556104f9565b82601f106104cb57805160ff19168380011785556104f9565b828001600101855582156104f9579182015b828111156104f85782518255916020019190600101906104dd565b5b509050610506919061050a565b5090565b5b8082111561052357600081600090555060010161050b565b5090565b600061053a6105358461093f565b61090e565b9050808382526020820190508260005b8581101561057a5781358501610560888261069d565b84526020840193506020830192505060018101905061054a565b5050509392505050565b60006105976105928461096b565b61090e565b9050808382526020820190508260005b858110156105d757813585016105bd88826106c7565b8452602084019350602083019250506001810190506105a7565b5050509392505050565b60006105f46105ef84610997565b61090e565b90508281526020810184848401111561060c57600080fd5b610617848285610a55565b509392505050565b600082601f83011261063057600080fd5b8135610640848260208601610527565b91505092915050565b600082601f83011261065a57600080fd5b813561066a848260208601610584565b91505092915050565b60008135905061068281610bb0565b92915050565b60008135905061069781610bc7565b92915050565b600082601f8301126106ae57600080fd5b81356106be8482602086016105e1565b91505092915050565b600060a082840312156106d957600080fd5b6106e360a061090e565b905060006106f384828501610688565b600083015250602082013567ffffffffffffffff81111561071357600080fd5b61071f8482850161069d565b602083015250604082013567ffffffffffffffff81111561073f57600080fd5b61074b8482850161069d565b604083015250606082013567ffffffffffffffff81111561076b57600080fd5b6107778482850161069d565b606083015250608082013567ffffffffffffffff81111561079757600080fd5b6107a38482850161061f565b60808301525092915050565b6000813590506107be81610bde565b92915050565b6000806000606084860312156107d957600080fd5b60006107e786828701610673565b935050602084013567ffffffffffffffff81111561080457600080fd5b61081086828701610649565b925050604084013567ffffffffffffffff81111561082d57600080fd5b6108398682870161069d565b9150509250925092565b60006020828403121561085557600080fd5b6000610863848285016107af565b91505092915050565b610875816109e3565b82525050565b610884816109f5565b82525050565b6000610895826109c7565b61089f81856109d2565b93506108af818560208601610a64565b6108b881610b9f565b840191505092915050565b60006020820190506108d8600083018461086c565b92915050565b60006040820190506108f3600083018561087b565b8181036020830152610905818461088a565b90509392505050565b6000604051905081810181811067ffffffffffffffff8211171561093557610934610b70565b5b8060405250919050565b600067ffffffffffffffff82111561095a57610959610b70565b5b602082029050602081019050919050565b600067ffffffffffffffff82111561098657610985610b70565b5b602082029050602081019050919050565b600067ffffffffffffffff8211156109b2576109b1610b70565b5b601f19601f8301169050602081019050919050565b600081519050919050565b600082825260208201905092915050565b60006109ee82610a2b565b9050919050565b60007fffffffff0000000000000000000000000000000000000000000000000000000082169050919050565b6000819050919050565b600073ffffffffffffffffffffffffffffffffffffffff82169050919050565b6000819050919050565b82818337600083830152505050565b60005b83811015610a82578082015181840152602081019050610a67565b83811115610a91576000848401525b50505050565b60006002820490506001821680610aaf57607f821691505b60208210811415610ac357610ac2610b41565b5b50919050565b6000610ad482610a4b565b91507fffffffffffffffffffffffffffffffffffffffffffffffffffffffffffffffff821415610b0757610b06610b12565b5b600182019050919050565b7f4e487b7100000000000000000000000000000000000000000000000000000000600052601160045260246000fd5b7f4e487b7100000000000000000000000000000000000000000000000000000000600052602260045260246000fd5b7f4e487b7100000000000000000000000000000000000000000000000000000000600052604160045260246000fd5b6000601f19601f8301169050919050565b610bb9816109f5565b8114610bc457600080fd5b50565b610bd081610a21565b8114610bdb57600080fd5b50565b610be781610a4b565b8114610bf257600080fd5b5056fea2646970667358221220920881685013cc428c631b7c3376c91a212b2365c5ac9510809f31e9b3f5178064736f6c63430008000033",
  "immutableReferences": {},
  "source": "// SPDX-License-Identifier: MIT\r\npragma solidity ^0.8.0;\r\n\r\ncontract VPR_Registry_Contract {\r\n    address public owner;\r\n\r\n    constructor() {\r\n        owner = msg.sender;\r\n    }\r\n\r\n    struct Value_Check {\r\n        int value_check_id; \r\n        string attribute_id; \r\n        string predicate;\r\n        string attribute_value; \r\n        string[] selected_issuers;\r\n    }\r\n\r\n    struct VPR {\r\n        bytes4 function_id;\r\n        Value_Check[] value_check_list;\r\n        string CID;\r\n    }\r\n\r\n    VPR[] public registry;\r\n\r\n    function addVPR(bytes4 _function_id, Value_Check[] memory _value_check_list, string memory _CID) public {\r\n        // Create a new VPR in storage\r\n        VPR storage newVPR = registry.push();\r\n        newVPR.function_id = _function_id;\r\n        newVPR.CID = _CID;\r\n\r\n        // Manually copy each Required_Attribute to storage\r\n        for (uint i = 0; i < _value_check_list.length; i++) {\r\n            // Add a new Required_Attribute to the attribute array in storage\r\n            Value_Check storage newValue_Check = newVPR.value_check_list.push();\r\n            newValue_Check.attribute_id = _value_check_list[i].attribute_id;\r\n            newValue_Check.predicate = _value_check_list[i].predicate;\r\n            newValue_Check.attribute_value = _value_check_list[i].attribute_value;\r\n            \r\n            // Manually copy each selected_issuer to storage\r\n            for (uint j = 0; j < _value_check_list[i].selected_issuers.length; j++) {\r\n                newValue_Check.selected_issuers.push(_value_check_list[i].selected_issuers[j]);\r\n            }\r\n        }\r\n    }\r\n}\r\n",
  "sourcePath": "C:\\Users\\mike1\\Desktop\\Masterarbeit\\Code\\Smart_Contracts\\contracts\\VPR_Registry.sol",
  "compiler": {
    "name": "solc",
    "version": "0.8.0+commit.c7dfd78e.Emscripten.clang"
  },
  "schemaVersion": "3.4.16",
  "updatedAt": "2024-06-02T20:50:10.961Z",
  "networkType": "ethereum",
  "devdoc": {
    "kind": "dev",
    "methods": {},
    "version": 1
  },
  "userdoc": {
    "kind": "user",
    "methods": {},
    "version": 1
  }
}